:0300000002170ED6
:0C170E00787FE4F6D8FD75814C02175579
:04197000021B000056
:041ADF007F26DFFE81
:011AE30022E0
:081A72007F107E93DEFEDFFC15
:011A7A002249
:101A1F00AD07AC06ED1DAE0470011C4E6005121A29
:041A2F007280F122AE
:071AB8005392F05391F0225C
:0317FD00D2912264
:031AFC00C2912272
:04180000AB07AA0682
:10180400EB4A70030217FD8A1B8B1CC290D291D243
:1018140092121ADFE4FDEDFF3395E0FEC3EF94105E
:10182400EE648094805018EA339293D290121ADFB7
:10183400C290EB25E0FBEA33FA121ADF0D80D7C21F
:0318440091C292BC
:01184700227E
:051AE400AE1BAF1C2247
:061ACD00E4F51BF51C22EC
:02179A008F2A94
:10179C00900000EF700674FFF583F582E4F9E9FF21
:1017AC003395E0FEC3EF9410EE648094805041E5D5
:1017BC002A64017015FE04A801088005C333CE33DA
:1017CC00CED8F94282EE428380157E7F74FFA80149
:1017DC00088005C333CE33CED8F95282EE5283AF94
:1017EC0082AE831218007F647E00121A1F0980AE2D
:0117FC0022CA
:1019400053746172740D0A00536C6565700D0A0062
:10195000427265616B0D0A00426174746572793A76
:101960002025642025252009563A2025640D0A00EB
:081A7B007F0A7E57DEFEDFFC4E
:011A83002240
:081A84007F107E93DEFEDFFC03
:011A8C002237
:101A3300AD07AC06ED1DAE0470011C4E6005121A15
:041A43008480F12288
:1013F300E4F526F527F528F529121A57121A66126D
:1014030019C4121AB812199C1219E6121A8DD2AF06
:10141300E51D640470137BFF7A197940120FE6759A
:101423001D037F0112179AA1A9E51D640270157BA4
:10143300FF7A197948120FE6E4FF12179A7F021216
:101443001A0780CC121AEED3EF9400EE64809480D6
:1014530040257BFF7A197950120FE6121AEE7C01B0
:101463007DF4120D57C3ED94FAEC6480948050041C
:1014730074FFA1A4E4A1A4121AF3D3EF9400EE64C1
:101483008094805002A153E54664016002A113F5E4
:1014930046FFFE121800121ACDC29712190D8E269E
:1014A3008F277F0F1216778E2F8F307BFF7A197954
:1014B3005885262D85272E120FE6AC26AD27E4127C
:1014C3000AA3E4FBFA79207841120A01E4FBFAF952
:1014D300783F120807120ADC8E268F27E4F528F5D9
:1014E30029D3E5279400E5269400401DE52925E04E
:1014F300F529E52833F5280529E52970020528E5AE
:1015030027152770DC152680D8E4F526F527A1A931
:10151300121AF37C017DF4120D57ED4C6002A1A960
:101523000527E52770020526121AE4AC06AD077EEF
:10153300007401A827088005C333CE33CED8F9FF42
:10154300E5285EFEE5295FFFEC4EFEED4FFF80537D
:10155300D297121A96E47BB87A0BF9F812188EAC6C
:1015630000AD01AE02AF03E47BE87A03F9F8D312CE
:101573000E154005E4FFFE802A121A96E47BB87A22
:101583000BF9F812188EAC00AD01AE02AF03E47B89
:10159300D07A07F9F8D3120E1540047455800274FB
:0B15A300AAFFFE121800121A7B811331
:041974000248000025
:1019C400754A00754B00754CEF53929F43916043E9
:1019D400BA8090FEA8743FF053BA7F75DE2F75BCB1
:0219E40080225F
:101677008F2A53BCF043BC0F43BC400000E5BC308D
:10168700E5FB53BCDFAB4AAA4BA94C120D8DFFAE4D
:10169700F0EE3395E0FDFCE4FB7A04F9F8120DB89F
:1016A700C005C006C007AFBDEFFEADBEEDFBAA0685
:1016B700EA3395E0F9F8D007D006D00512188E8ED8
:1016C700488F49E52A640F70012253BCF0E52A428E
:1016D700BC43BC400000E5BC30E5FB53BCDFAE4873
:1016E700AF49E4FCFDFB7A04F9F812188EA804A9A7
:1016F70005AA06AB07AFBDEFFEADBEEDFFEE339516
:07170700E0FDFC120DB82209
:10190D007F0F121677E5492448FDE54834F4FCE4D1
:10191D00120AA3E4FBFA79C878421208F8E4FBFA3C
:10192D0079967844120A01E4FBFAF9783F12080718
:03193D00020ADCBF
:031AFF000D0A00CD
:081AA8008F993099FDC29922CB
:051AE900AE07021AA87F
:03002300021AD3EB
:061AD300309802C29832B7
:0300030002184898
:10184800C0E0C0F0C083C082C0D075D000C000C066
:1018580001C002C003C004C005C006C007E51D647E
:10186800047005121A478003751D02D007D006D0F0
:1018780005D004D003D002D001D000D0D0D082D07F
:0618880083D0F0D0E03235
:030013000218D2FE
:1018D200C0E0C0F0C083C082C0D075D000C000C0DC
:1018E20001C002C003C004C005C006C007121A47E7
:1018F200D007D006D005D004D003D002D001D0004A
:0B190200D0D0D082D083D0F0D0E032F3
:03008300021AF866
:041AF80075C760321C
:1019E60075985053890F538E9E438E40758DFF75A3
:1019F6008BE6D299D28ED2AC7BFF7A1A79FF020F90
:011A0600E6F9
:0F1A5700E4F592759160F5B2F5B1F5CAF5C922C3
:0C1A6600D288D2A8D28AD2AA438F402294
:081AB0001217FDD297D2B522F6
:091A8D00751D04121A47021AD952
:101A07008F2A121AB0D3E52A940274809480500763
:081A1700852A8700121A8D22B6
:10197800040B00000000040F0000000002154E20B8
:101988000217000002190BB80209000002131F40D9
:0319980001080043
:03000B000215AE2D
:1015AE00C0E0C0F0C083C082C0D075D000C000C003
:1015BE0001C002C003C004C005C006C007E4FAF9AA
:1015CE00F8E50E2401F50EEA350DF50DE9350CF5AD
:1015DE000CE8350BF50BE4FFFEFDFCAB12AA11A9CE
:1015EE0010A80FD3120E15401A74FF2512F512E52E
:1015FE001134FFF511E51034FFF510E50F34FFF54A
:10160E000F8003751D02E50825E0FFA2CDE4334FE0
:10161E00F5085403FFBF0206754601121AC6D3E53C
:10162E000A9400E509648094804008E50A150A7062
:10163E0002150920B403121ABFD3E5189400E5175A
:10164E00648094804008E518151870021517D007AD
:10165E00D006D005D004D003D002D001D000D0D017
:09166E00D082D083D0F0D0E0322C
:091A9600AF0EAE0DAD0CAC0B223D
:091A9F00AF12AE11AD10AC0F2224
:051AEE00AE17AF182245
:051AF300AE09AF0A225C
:101A4700AE15EE3395E08516128E11F510F50F22BF
:071ABF00851917851A182292
:061AD900E4F517F51822E8
:071AC60085130985140A22B3
:10199C00121A8DE4F50EF50DF50CF50B121A471213
:1019AC001ABF438E805389F0438903758A20758C46
:0819BC00D1C28DD28CD2A92208
:10080000020B48E86480F8E933E83360110460F0D3
:10081000ED33EC337009E8FCE9FDEAFEEBFF22045E
:1008200060DED3EB9FEA9EE99DE8C2E78CF0C2F759
:1008300095F0400CE8CCF8E9CDF9EACEFAEBCFFB25
:10084000120B1385D0F05804700320D5B3E8047060
:10085000075002B2D5020B5292D5EC0460F7E4CCFB
:10086000C0E0C398F8603B94186008400DD0E0FBEE
:10087000020B2AE4FBFAC9FC8028E830E406E4C94C
:10088000FBE4CAFCE830E305E4C9CACBFCE8540742
:100890006010F8C3E913F9EA13FAEB13FBEC13FC4D
:1008A000D8F130F52FC3E49CFCEF9BFFEE9AFEEDF0
:1008B00099FDD0E0FBEF4E4D4C701222DB03020B92
:1008C0004FEC2CFCEF33FFEE33FEED33FDED30E764
:1008D000EB020B2AEF2BFFEE3AFEED39FDD0E0FBE9
:1008E00050130BBB0003020B52ED13FDEE13FEEF92
:0808F00013FFEC13FC020B2ABC
:1008F800EC4D6011E8497017ED33EC3304600DE4FA
:10090800FCFFFEFD22E933E8330470F8020B4812BD
:100918000B1358046009E4CC2481500628500902BE
:100928000B52284003020B4FC0E0EB4A7044B980D9
:1009380006D0E0FB020B3EEF4E701CBD8008EBFFBB
:10094800EAFEE9FD80EBE98DF0A4FEE5F00209E19D
:10095800E9CDF9EAFEEBFFEF89F0A4FCE5F0CE89DA
:10096800F0A42EFFE435F0CD89F0A42DFEE435F097
:100978008067EF4E7005BD80D780C3EF8BF0A4ACC5
:10098800F0EE8BF0A42CFCE435F0F8EF8AF0A42C00
:10099800E5F038FCE433CB8DF0A42CFCE5F03BF813
:1009A800EE8AF0A42CFCE5F038F8E433CF89F0A403
:1009B8002CFCE5F038CF3400CE89F0A42FFFE5F009
:1009C8003EFEE433C98DF0A42EFEE5F039CD8AF061
:1009D800A42FFFE5F03EFEE43DFD33D0E0FB5007D9
:1009E8000BBB000F020B52EC2CFCEF33FFEE33FE77
:0609F800ED33FD020B2AA5
:1009FE00020B52EC5D046005E859047003020B48CB
:100A0E00120B13580460F6EC4860F2EC7004FDFE15
:100A1E00FF22C860DB2481C85009C39860025006CB
:100A2E00020B4F9850CAF582E9294B4A7005AB82EA
:100A3E00020B3E75F0007C1A7880C3EF9BEE9AEDA8
:100A4E0099400DC3EF9BFFEE9AFEED99FDE842F043
:100A5E00DC23ACF0D0E0FFD0E0FED0E0FDAB822096
:100A6E00E7101BEB60BAEC2CFCEF33FFEE33FEED20
:100A7E0033FD020B2AE803F830E705C0F075F000ED
:100A8E00EF2FFFEE33FEED33FD40B830E7C280AA04
:100A9E0075F020800E75F010800575F0087D007ED3
:100AAE00007F003392D530D503120E07EC33401081
:100ABE00EF33FFEE33FEED33FDEC33FCD5F0ED22DC
:0E0ACE00E5F0247EA2D513CC92E7CDCEFF2218
:100ADC00EDD2E7CD33EC3392D524814006E4FFFE12
:100AEC00FDFC22FCE4CFCECDCC24E0501174FF8071
:100AFC00EDC3CC13CCCD13CDCE13CECF13CF04700E
:070B0C00F030D5DE020E07F8
:100F8400E541242DF8E6054122782A300702782D20
:100F9400E475F001120E2B020CFF2000EB7F2ED221
:100FA400008018EF540F2490D43440D4FF30040B45
:100FB400EF24BFB41A0050032461FFE54260021518
:100FC400420545E5457002054430070D782AE4756D
:100FD400F001120E2BEF020D45021AE97403D20739
:100FE4008003E4C207F5418B2A8A2B892CE4F5425D
:100FF400F544F545E54260077F20120FBF80F57583
:1010040043FFC201C200C202C203C205C206C20833
:10101400120F8DFF700D3007057F00120FD0AF4502
:10102400AE4422B4255FC2D5C204120F8DFF24D072
:10103400B40A00501A75F00A784230D50508B6FF94
:101044000106C6A426F620D5047002D20380D92452
:10105400CFB41A00EF5004C2E5D2040212BDD2018B
:1010640080C6D20080C0D20280BCD2D580BAD2055C
:1010740080B47F20120FBF2002077401B5420040E4
:10108400F1120F84FF120FBF020FF8D208D20680AC
:1010940095120F84FB120F84FA120F84F94A4B70D5
:1010A4000679B47A137BFF20022EE542602A7E0083
:1010B4008E82758300120D1860060EEE654370F083
:1010C400C2D5EBC0E0EAC0E0E9C0E0EE12131DD0E7
:1010D400E0F9D0E0FAD0E0FB120CFFFF60AAEBC00D
:1010E400E0EAC0E0E9C0E0120FBFD0E02401F9D08B
:1010F400E03400FAD0E0FBE5430460DCD543D9805A
:1011040087D20280A212130060F7E5437001041233
:101114000B5DA943600DE543600914F5431213A761
:10112400EF60F3EA30E702F404C3995077EAF42558
:10113400430430E701E404F543800D12130060C159
:10114400EA05432543120B5DEA7840F630E701E4F3
:10115400254304D543042005011412131DE4C0E003
:101164001213A77840E6601320E70714F6120FA7BE
:10117400802204F6D0E014C0E07F00120FA7E543FC
:101184006007120F9E1543800B300503120F9ED08B
:10119400E0020FF8D0E00480C512130060A0E5431C
:1011A40004120B5D7840EAF6E54320050260010471
:0511B400240412131DCC
:1011B90074FF04C0E01213A7120FA7E5432005022C
:1011C9006003120F9ED0E0B543E87F45120FB17856
:1011D90040E67F2B30E7047F2DF404C0E0120FBFF7
:1011E900D0E075F00A84C0F0120FA8D0E0120FA861
:1011F900020FF8791080027908C206C2088008D265
:10120900D5790A8004790AC2D5E543047002F54309
:10121900E4FAFDFEFF120F84FC7B08200113120F74
:1012290084FD7B1030000A120F84FE120F84FF7BAD
:1012390020EC3382D592D55013C3E43000069FFFCA
:10124900E49EFEE42001039DFDE49CFCE4CBF8C28E
:1012590001EC700CCFCECDCCE824F8F870F38017F0
:10126900C3EF33FFEE33FEED33FDEC33FCEB33FB21
:10127900994002FB0FD8E9EB300105F8D0E0C448EA
:10128900B201C0E00AEC4D4E4F78207B0070C2EAF3
:10129900B5430040BCC0E012131FD0F0D0E02001DC
:1012A90004C4C0E0C4B201C0F0120FA8D0F0D5F058
:1012B900EB020FF8120E3B10955311FC5810664CB7
:1012C90010624212004F120844120849107B43125F
:1012D9000E55113F46119D4511094713D450106A07
:1012E9002D106E2E10912B107223108F2013BD2AF2
:1012F900102A4800001089E543B4FF03754306121C
:101309000F84FC120F84FD120F84FE120F84FF78E4
:1013190039020B8C790AA2D5200314300509B910BA
:10132900020404B9080104A2D520060250010420D0
:1013390002689202B542005034C0E07F20300319A0
:101349007F30A20272067205500F121376C202C2D2
:1013590006C205C2087F30800F300503E9C0E012DC
:101369000FBF300503D0E0F9D0E0B542CC30051706
:101379007F30B9100C120FBF7F583004077F788077
:1013890003B90803120FBF3002057F2D020FBF7F7B
:10139900202008F87F2B2006F322920280CF7F00BD
:1013A900B4070050052439F8E6FF22286E756C6CE5
:1013B9002900D201120F843001F8C201784230D5D8
:1013C9000108F602102A2D50434958120F842403AC
:1013D900B405004001E49013CF93120FB0743A1290
:0A13E9000FB0D2037542040211FC9C
:100B1300E9D2E7C933E833F892D5EDD2E7CD33EC28
:070B230033FC5002B2D522A1
:100B2A00EC30E7100FBF000C0EBE00080DBD00042C
:100B3A000BEB6014A2D5EB13FCED92E7FD2274FFD8
:100B4A00FCFDFEFF22E480F8A2D574FF13FC7D8031
:030B5A00E480EF45
:100B5D00F920E72824F950037907E4F42402FB185F
:100B6D00DBFDE624FB5014E9600DE4F618E604F60F
:0F0B7D00B40A08E4F6D9F57401F60A22C2D522AB
:100B8C00ED33EC3392D5FA602AB4FF33EDC2E77B38
:100B9C00FF60067A0B79B1E4227A0B79BA20D5047E
:100BAC007A0B79B5224E614E002B494E46002D49E9
:100BBC004E4600E47A08F608DAFC7B00740722E85B
:100BCC00C0E0ECC0E0EDC0E0EEC0E0EFC0E0EA75E4
:100BDC00F010A4CAABF075F04DA42BFBE435F0FC7F
:100BEC00EA2410FAEB34C5FBEC34D9FCEDC2E7FF78
:100BFC0075F056A4F42411C5F0F434C58FF0A42A72
:100C0C00E5F03BE43CF620E714120CBFD0E0FFD03B
:100C1C00E0FED0E0FDD0E0FC120A018014F40412D6
:100C2C000CBFD0E0FFD0E0FED0E0FDD0E0FC12081D
:100C3C00F8D0E0F8E6FAEDD2E7CD33EC332482FBC2
:100C4C00E4C3CF33CFCE33CECD33CD33DBF37B0701
:100C5C0075F00A846004F6081B0AE5F0F6088FF0BC
:100C6C00740AA4FFACF08EF0740AA42CFEACF05005
:100C7C00010C8DF0740AA42CFDE435F0F608DBDED3
:030C8C00740722C8
:100C8F003F8000004120000042C80000447A00006D
:100C9F00461C400047C35000497424004B189680EF
:100CAF004CBEBC205A0E1BCA6753C21C749DC5AEE6
:100CBF00FB60065407601C2323120CEDEB543860C5
:100CCF0009120CD9120CE81208F8ECF8EDF9EEFA4B
:100CDF00EFCB22EB120CE880F1543803241C900C5C
:100CEF008FFE93FC0EEE93FD0EEE930ECE93FF222E
:10171A000213F3E493A3F8E493A34003F68001F2DF
:10172A0008DFF48029E493A3F85407240CC8C333D0
:10173A00C4540F4420C8834004F456800146F6DF9F
:10174A00E4800B0102040810204080901970E47EA6
:10175A00019360BCA3FF543F30E509541FFEE49394
:10176A00A360010ECF54C025E060A840B8E493A35B
:10177A00FAE493A3F8E493A3C8C582C8CAC583CA86
:10178A00F0A3C8C582C8CAC583CADFE9DEE780BE3E
:01199B00004B
:100CFF00BB010689828A83E0225002E722BBFE02F3
:090D0F00E32289828A83E4932225
:100D1800BB010CE58229F582E5833AF583E0225090
:100D280006E92582F8E622BBFE06E92582F8E222DA
:0D0D3800E58229F582E5833AF583E49322F4
:100D4500BB010689828A83F0225002F722BBFE018D
:020D5500F32287
:100D5700C2D5EC30E709B2D5E4C39DFDE49CFCEEB7
:100D670030E715B2D5E4C39FFFE49EFE120E61C3C0
:100D7700E49DFDE49CFC8003120E6130D507C3E4BB
:060D87009FFFE49EFE2226
:100D8D00BB010A89828A83E0F5F0A3E02250068731
:100D9D00F009E71922BBFE07E3F5F009E3192289F3
:0B0DAD00828A83E493F5F07401932226
:100DB800E88FF0A4CC8BF0A42CFCE98EF0A42CFCDA
:100DC8008AF0EDA42CFCEA8EF0A4CDA8F08BF0A458
:100DD8002DCC3825F0FDE98FF0A42CCD35F0FCEBB7
:100DE8008EF0A4FEA9F0EB8FF0A4CFC5F02ECD397C
:0F0DF800FEE43CFCEAA42DCE35F0FDE43CFC22E9
:10188E00C2D5E830E70FB2D5E4C39BFBE49AFAE485
:10189E0099F9E498F8EC30E717B2D51218C4120E85
:1018AE00F2E4C39BFBE49AFAE499F9E498F8800316
:1018BE00120EF230D50DE4C39FFFE49EFEE49DFDB3
:0418CE00E49CFC2278
:0E0E0700C3E49FFFE49EFEE49DFDE49CFC22FC
:100E1500EB9FF5F0EA9E42F0E99D42F0EC6480C854
:060E250064809845F022F4
:100E2B00FAE6FB0808E6F925F0F618E6CA3AF622C8
:100E3B00D083D082F8E4937012740193700DA3A346
:100E4B0093F8740193F5828883E47374029368605A
:060E5B00EFA3A3A380DF5A
:100E6100BC000BBE0029EF8DF084FFADF022E4CC75
:100E7100F875F008EF2FFFEE33FEEC33FCEE9DEC3E
:100E8100984005FCEE9DFE0FD5F0E9E4CEFD22ED84
:100E9100F8F5F0EE8420D21CFEADF075F008EF2FCE
:100EA100FFED33FD4007985006D5F0F222C398FDBF
:050EB1000FD5F0EA225C
:100EB60075F008758200EF2FFFEE33FECD33CDCCF3
:100EC60033CCC58233C5829BED9AEC99E582984076
:100ED6000CF582EE9BFEED9AFDEC99FC0FD5F0D653
:100EE600E4CEFBE4CDFAE4CCF9A88222B800C1B97D
:100EF6000059BA002DEC8BF084CFCECDFCE5F0CBBB
:100F0600F97818EF2FFFEE33FEED33FDEC33FCEBF3
:100F160033FB10D703994004EB99FB0FD8E5E4F9AE
:100F2600FA227818EF2FFFEE33FEED33FDEC33FC9B
:100F3600C933C910D7059BE99A4007EC9BFCE99A8F
:100F4600F90FD8E0E4C9FAE4CCFB2275F010EF2FD4
:100F5600FFEE33FEED33FDCC33CCC833C810D707D4
:100F66009BEC9AE899400AED9BFDEC9AFCE899F80F
:0E0F76000FD5F0DAE4CDFBE4CCFAE4C8F922A2
:00000001FF
